{"contracts/GetterSetter.sol":{"GetterSetter":{"abi":[{"anonymous":false,"inputs":[{"indexed":false,"internalType":"bytes32","name":"b32","type":"bytes32"},{"indexed":false,"internalType":"uint256","name":"u256","type":"uint256"},{"indexed":false,"internalType":"bytes32","name":"b322","type":"bytes32"}],"name":"Output","type":"event"},{"anonymous":false,"inputs":[{"indexed":true,"internalType":"address","name":"from","type":"address"},{"indexed":false,"internalType":"bytes","name":"value","type":"bytes"}],"name":"SetBytes","type":"event"},{"anonymous":false,"inputs":[{"indexed":true,"internalType":"address","name":"from","type":"address"},{"indexed":true,"internalType":"bytes32","name":"value","type":"bytes32"}],"name":"SetBytes32","type":"event"},{"anonymous":false,"inputs":[{"indexed":true,"internalType":"address","name":"from","type":"address"},{"indexed":true,"internalType":"uint256","name":"value","type":"uint256"}],"name":"SetUint256","type":"event"},{"inputs":[],"name":"getBytes","outputs":[{"internalType":"bytes","name":"","type":"bytes"}],"stateMutability":"view","type":"function"},{"inputs":[],"name":"getBytes32","outputs":[{"internalType":"bytes32","name":"","type":"bytes32"}],"stateMutability":"view","type":"function"},{"inputs":[],"name":"getUint256","outputs":[{"internalType":"uint256","name":"","type":"uint256"}],"stateMutability":"view","type":"function"},{"inputs":[],"name":"requestId","outputs":[{"internalType":"bytes32","name":"","type":"bytes32"}],"stateMutability":"view","type":"function"},{"inputs":[{"internalType":"bytes32","name":"_requestId","type":"bytes32"},{"internalType":"bytes","name":"_value","type":"bytes"}],"name":"requestedBytes","outputs":[],"stateMutability":"nonpayable","type":"function"},{"inputs":[{"internalType":"bytes32","name":"_requestId","type":"bytes32"},{"internalType":"bytes32","name":"_value","type":"bytes32"}],"name":"requestedBytes32","outputs":[],"stateMutability":"nonpayable","type":"function"},{"inputs":[{"internalType":"bytes32","name":"_requestId","type":"bytes32"},{"internalType":"uint256","name":"_value","type":"uint256"}],"name":"requestedUint256","outputs":[],"stateMutability":"nonpayable","type":"function"},{"inputs":[{"internalType":"bytes","name":"_value","type":"bytes"}],"name":"setBytes","outputs":[],"stateMutability":"nonpayable","type":"function"},{"inputs":[{"internalType":"bytes32","name":"_value","type":"bytes32"}],"name":"setBytes32","outputs":[],"stateMutability":"nonpayable","type":"function"},{"inputs":[{"internalType":"uint256","name":"_value","type":"uint256"}],"name":"setUint256","outputs":[],"stateMutability":"nonpayable","type":"function"}],"evm":{"bytecode":{"linkReferences":{},"object":"608060405234801561001057600080fd5b506108ad806100206000396000f3fe608060405234801561001057600080fd5b506004361061009d5760003560e01c806368895979116100665780636889597914610134578063c2b12a7314610152578063d2282dc51461016e578063da359dc81461018a578063ed53e511146101a65761009d565b80626d6cae146100a25780630bcd3b33146100c05780631f903037146100de5780633345b4d0146100fc57806346ddd1ff14610118575b600080fd5b6100aa6101c2565b6040516100b791906106d0565b60405180910390f35b6100c86101c8565b6040516100d5919061070f565b60405180910390f35b6100e6610256565b6040516100f391906106d0565b60405180910390f35b61011660048036038101906101119190610592565b61025c565b005b610132600480360381019061012d9190610532565b610270565b005b61013c610286565b6040516101499190610731565b60405180910390f35b61016c600480360381019061016791906104c5565b61028c565b005b6101886004803603810190610183919061061f565b6102da565b005b6101a4600480360381019061019f91906105d2565b610328565b005b6101c060048036038101906101bb91906104f2565b61038e565b005b60025481565b600380546101d5906107be565b80601f0160208091040260200160405190810160405280929190818152602001828054610201906107be565b801561024e5780601f106102235761010080835404028352916020019161024e565b820191906000526020600020905b81548152906001019060200180831161023157829003601f168201915b505050505081565b60005481565b8160028190555061026c816102da565b5050565b826002819055506102818282610328565b505050565b60015481565b80600081905550803373ffffffffffffffffffffffffffffffffffffffff167fdc73ee99832252105ed74a404690c2f10ad1b294cbbeb0ff5cded48ef2aa437d60405160405180910390a350565b80600181905550803373ffffffffffffffffffffffffffffffffffffffff167fd943f063acdb1c6f206cf6a3f6d1ba39687bcc07feb7f44019bdbd4773c9c28d60405160405180910390a350565b8181600391906103399291906103a2565b503373ffffffffffffffffffffffffffffffffffffffff167ff22a519d38e59bc517532f666f8da532fdd5356e68d617191e82a8fdcc8abdcf83836040516103829291906106eb565b60405180910390a25050565b8160028190555061039e8161028c565b5050565b8280546103ae906107be565b90600052602060002090601f0160209004810192826103d05760008555610417565b82601f106103e957803560ff1916838001178555610417565b82800160010185558215610417579182015b828111156104165782358255916020019190600101906103fb565b5b5090506104249190610428565b5090565b5b80821115610441576000816000905550600101610429565b5090565b60008135905061045481610849565b92915050565b60008083601f8401126104705761046f610824565b5b8235905067ffffffffffffffff81111561048d5761048c61081f565b5b6020830191508360018202830111156104a9576104a8610829565b5b9250929050565b6000813590506104bf81610860565b92915050565b6000602082840312156104db576104da610833565b5b60006104e984828501610445565b91505092915050565b6000806040838503121561050957610508610833565b5b600061051785828601610445565b925050602061052885828601610445565b9150509250929050565b60008060006040848603121561054b5761054a610833565b5b600061055986828701610445565b935050602084013567ffffffffffffffff81111561057a5761057961082e565b5b6105868682870161045a565b92509250509250925092565b600080604083850312156105a9576105a8610833565b5b60006105b785828601610445565b92505060206105c8858286016104b0565b9150509250929050565b600080602083850312156105e9576105e8610833565b5b600083013567ffffffffffffffff8111156106075761060661082e565b5b6106138582860161045a565b92509250509250929050565b60006020828403121561063557610634610833565b5b6000610643848285016104b0565b91505092915050565b61065581610768565b82525050565b60006106678385610757565b935061067483858461077c565b61067d83610838565b840190509392505050565b60006106938261074c565b61069d8185610757565b93506106ad81856020860161078b565b6106b681610838565b840191505092915050565b6106ca81610772565b82525050565b60006020820190506106e5600083018461064c565b92915050565b6000602082019050818103600083015261070681848661065b565b90509392505050565b600060208201905081810360008301526107298184610688565b905092915050565b600060208201905061074660008301846106c1565b92915050565b600081519050919050565b600082825260208201905092915050565b6000819050919050565b6000819050919050565b82818337600083830152505050565b60005b838110156107a957808201518184015260208101905061078e565b838111156107b8576000848401525b50505050565b600060028204905060018216806107d657607f821691505b602082108114156107ea576107e96107f0565b5b50919050565b7f4e487b7100000000000000000000000000000000000000000000000000000000600052602260045260246000fd5b600080fd5b600080fd5b600080fd5b600080fd5b600080fd5b6000601f19601f8301169050919050565b61085281610768565b811461085d57600080fd5b50565b61086981610772565b811461087457600080fd5b5056fea264697066735822122061dca1a3aafa9a54f7d1bb8ba2cadd79ddfa15ea41347b41dd467294db6401b464736f6c63430008060033","opcodes":"PUSH1 0x80 PUSH1 0x40 MSTORE CALLVALUE DUP1 ISZERO PUSH2 0x10 JUMPI PUSH1 0x0 DUP1 REVERT JUMPDEST POP PUSH2 0x8AD DUP1 PUSH2 0x20 PUSH1 0x0 CODECOPY PUSH1 0x0 RETURN INVALID PUSH1 0x80 PUSH1 0x40 MSTORE CALLVALUE DUP1 ISZERO PUSH2 0x10 JUMPI PUSH1 0x0 DUP1 REVERT JUMPDEST POP PUSH1 0x4 CALLDATASIZE LT PUSH2 0x9D JUMPI PUSH1 0x0 CALLDATALOAD PUSH1 0xE0 SHR DUP1 PUSH4 0x68895979 GT PUSH2 0x66 JUMPI DUP1 PUSH4 0x68895979 EQ PUSH2 0x134 JUMPI DUP1 PUSH4 0xC2B12A73 EQ PUSH2 0x152 JUMPI DUP1 PUSH4 0xD2282DC5 EQ PUSH2 0x16E JUMPI DUP1 PUSH4 0xDA359DC8 EQ PUSH2 0x18A JUMPI DUP1 PUSH4 0xED53E511 EQ PUSH2 0x1A6 JUMPI PUSH2 0x9D JUMP JUMPDEST DUP1 PUSH3 0x6D6CAE EQ PUSH2 0xA2 JUMPI DUP1 PUSH4 0xBCD3B33 EQ PUSH2 0xC0 JUMPI DUP1 PUSH4 0x1F903037 EQ PUSH2 0xDE JUMPI DUP1 PUSH4 0x3345B4D0 EQ PUSH2 0xFC JUMPI DUP1 PUSH4 0x46DDD1FF EQ PUSH2 0x118 JUMPI JUMPDEST PUSH1 0x0 DUP1 REVERT JUMPDEST PUSH2 0xAA PUSH2 0x1C2 JUMP JUMPDEST PUSH1 0x40 MLOAD PUSH2 0xB7 SWAP2 SWAP1 PUSH2 0x6D0 JUMP JUMPDEST PUSH1 0x40 MLOAD DUP1 SWAP2 SUB SWAP1 RETURN JUMPDEST PUSH2 0xC8 PUSH2 0x1C8 JUMP JUMPDEST PUSH1 0x40 MLOAD PUSH2 0xD5 SWAP2 SWAP1 PUSH2 0x70F JUMP JUMPDEST PUSH1 0x40 MLOAD DUP1 SWAP2 SUB SWAP1 RETURN JUMPDEST PUSH2 0xE6 PUSH2 0x256 JUMP JUMPDEST PUSH1 0x40 MLOAD PUSH2 0xF3 SWAP2 SWAP1 PUSH2 0x6D0 JUMP JUMPDEST PUSH1 0x40 MLOAD DUP1 SWAP2 SUB SWAP1 RETURN JUMPDEST PUSH2 0x116 PUSH1 0x4 DUP1 CALLDATASIZE SUB DUP2 ADD SWAP1 PUSH2 0x111 SWAP2 SWAP1 PUSH2 0x592 JUMP JUMPDEST PUSH2 0x25C JUMP JUMPDEST STOP JUMPDEST PUSH2 0x132 PUSH1 0x4 DUP1 CALLDATASIZE SUB DUP2 ADD SWAP1 PUSH2 0x12D SWAP2 SWAP1 PUSH2 0x532 JUMP JUMPDEST PUSH2 0x270 JUMP JUMPDEST STOP JUMPDEST PUSH2 0x13C PUSH2 0x286 JUMP JUMPDEST PUSH1 0x40 MLOAD PUSH2 0x149 SWAP2 SWAP1 PUSH2 0x731 JUMP JUMPDEST PUSH1 0x40 MLOAD DUP1 SWAP2 SUB SWAP1 RETURN JUMPDEST PUSH2 0x16C PUSH1 0x4 DUP1 CALLDATASIZE SUB DUP2 ADD SWAP1 PUSH2 0x167 SWAP2 SWAP1 PUSH2 0x4C5 JUMP JUMPDEST PUSH2 0x28C JUMP JUMPDEST STOP JUMPDEST PUSH2 0x188 PUSH1 0x4 DUP1 CALLDATASIZE SUB DUP2 ADD SWAP1 PUSH2 0x183 SWAP2 SWAP1 PUSH2 0x61F JUMP JUMPDEST PUSH2 0x2DA JUMP JUMPDEST STOP JUMPDEST PUSH2 0x1A4 PUSH1 0x4 DUP1 CALLDATASIZE SUB DUP2 ADD SWAP1 PUSH2 0x19F SWAP2 SWAP1 PUSH2 0x5D2 JUMP JUMPDEST PUSH2 0x328 JUMP JUMPDEST STOP JUMPDEST PUSH2 0x1C0 PUSH1 0x4 DUP1 CALLDATASIZE SUB DUP2 ADD SWAP1 PUSH2 0x1BB SWAP2 SWAP1 PUSH2 0x4F2 JUMP JUMPDEST PUSH2 0x38E JUMP JUMPDEST STOP JUMPDEST PUSH1 0x2 SLOAD DUP2 JUMP JUMPDEST PUSH1 0x3 DUP1 SLOAD PUSH2 0x1D5 SWAP1 PUSH2 0x7BE JUMP JUMPDEST DUP1 PUSH1 0x1F ADD PUSH1 0x20 DUP1 SWAP2 DIV MUL PUSH1 0x20 ADD PUSH1 0x40 MLOAD SWAP1 DUP2 ADD PUSH1 0x40 MSTORE DUP1 SWAP3 SWAP2 SWAP1 DUP2 DUP2 MSTORE PUSH1 0x20 ADD DUP3 DUP1 SLOAD PUSH2 0x201 SWAP1 PUSH2 0x7BE JUMP JUMPDEST DUP1 ISZERO PUSH2 0x24E JUMPI DUP1 PUSH1 0x1F LT PUSH2 0x223 JUMPI PUSH2 0x100 DUP1 DUP4 SLOAD DIV MUL DUP4 MSTORE SWAP2 PUSH1 0x20 ADD SWAP2 PUSH2 0x24E JUMP JUMPDEST DUP3 ADD SWAP2 SWAP1 PUSH1 0x0 MSTORE PUSH1 0x20 PUSH1 0x0 KECCAK256 SWAP1 JUMPDEST DUP2 SLOAD DUP2 MSTORE SWAP1 PUSH1 0x1 ADD SWAP1 PUSH1 0x20 ADD DUP1 DUP4 GT PUSH2 0x231 JUMPI DUP3 SWAP1 SUB PUSH1 0x1F AND DUP3 ADD SWAP2 JUMPDEST POP POP POP POP POP DUP2 JUMP JUMPDEST PUSH1 0x0 SLOAD DUP2 JUMP JUMPDEST DUP2 PUSH1 0x2 DUP2 SWAP1 SSTORE POP PUSH2 0x26C DUP2 PUSH2 0x2DA JUMP JUMPDEST POP POP JUMP JUMPDEST DUP3 PUSH1 0x2 DUP2 SWAP1 SSTORE POP PUSH2 0x281 DUP3 DUP3 PUSH2 0x328 JUMP JUMPDEST POP POP POP JUMP JUMPDEST PUSH1 0x1 SLOAD DUP2 JUMP JUMPDEST DUP1 PUSH1 0x0 DUP2 SWAP1 SSTORE POP DUP1 CALLER PUSH20 0xFFFFFFFFFFFFFFFFFFFFFFFFFFFFFFFFFFFFFFFF AND PUSH32 0xDC73EE99832252105ED74A404690C2F10AD1B294CBBEB0FF5CDED48EF2AA437D PUSH1 0x40 MLOAD PUSH1 0x40 MLOAD DUP1 SWAP2 SUB SWAP1 LOG3 POP JUMP JUMPDEST DUP1 PUSH1 0x1 DUP2 SWAP1 SSTORE POP DUP1 CALLER PUSH20 0xFFFFFFFFFFFFFFFFFFFFFFFFFFFFFFFFFFFFFFFF AND PUSH32 0xD943F063ACDB1C6F206CF6A3F6D1BA39687BCC07FEB7F44019BDBD4773C9C28D PUSH1 0x40 MLOAD PUSH1 0x40 MLOAD DUP1 SWAP2 SUB SWAP1 LOG3 POP JUMP JUMPDEST DUP2 DUP2 PUSH1 0x3 SWAP2 SWAP1 PUSH2 0x339 SWAP3 SWAP2 SWAP1 PUSH2 0x3A2 JUMP JUMPDEST POP CALLER PUSH20 0xFFFFFFFFFFFFFFFFFFFFFFFFFFFFFFFFFFFFFFFF AND PUSH32 0xF22A519D38E59BC517532F666F8DA532FDD5356E68D617191E82A8FDCC8ABDCF DUP4 DUP4 PUSH1 0x40 MLOAD PUSH2 0x382 SWAP3 SWAP2 SWAP1 PUSH2 0x6EB JUMP JUMPDEST PUSH1 0x40 MLOAD DUP1 SWAP2 SUB SWAP1 LOG2 POP POP JUMP JUMPDEST DUP2 PUSH1 0x2 DUP2 SWAP1 SSTORE POP PUSH2 0x39E DUP2 PUSH2 0x28C JUMP JUMPDEST POP POP JUMP JUMPDEST DUP3 DUP1 SLOAD PUSH2 0x3AE SWAP1 PUSH2 0x7BE JUMP JUMPDEST SWAP1 PUSH1 0x0 MSTORE PUSH1 0x20 PUSH1 0x0 KECCAK256 SWAP1 PUSH1 0x1F ADD PUSH1 0x20 SWAP1 DIV DUP2 ADD SWAP3 DUP3 PUSH2 0x3D0 JUMPI PUSH1 0x0 DUP6 SSTORE PUSH2 0x417 JUMP JUMPDEST DUP3 PUSH1 0x1F LT PUSH2 0x3E9 JUMPI DUP1 CALLDATALOAD PUSH1 0xFF NOT AND DUP4 DUP1 ADD OR DUP6 SSTORE PUSH2 0x417 JUMP JUMPDEST DUP3 DUP1 ADD PUSH1 0x1 ADD DUP6 SSTORE DUP3 ISZERO PUSH2 0x417 JUMPI SWAP2 DUP3 ADD JUMPDEST DUP3 DUP2 GT ISZERO PUSH2 0x416 JUMPI DUP3 CALLDATALOAD DUP3 SSTORE SWAP2 PUSH1 0x20 ADD SWAP2 SWAP1 PUSH1 0x1 ADD SWAP1 PUSH2 0x3FB JUMP JUMPDEST JUMPDEST POP SWAP1 POP PUSH2 0x424 SWAP2 SWAP1 PUSH2 0x428 JUMP JUMPDEST POP SWAP1 JUMP JUMPDEST JUMPDEST DUP1 DUP3 GT ISZERO PUSH2 0x441 JUMPI PUSH1 0x0 DUP2 PUSH1 0x0 SWAP1 SSTORE POP PUSH1 0x1 ADD PUSH2 0x429 JUMP JUMPDEST POP SWAP1 JUMP JUMPDEST PUSH1 0x0 DUP2 CALLDATALOAD SWAP1 POP PUSH2 0x454 DUP2 PUSH2 0x849 JUMP JUMPDEST SWAP3 SWAP2 POP POP JUMP JUMPDEST PUSH1 0x0 DUP1 DUP4 PUSH1 0x1F DUP5 ADD SLT PUSH2 0x470 JUMPI PUSH2 0x46F PUSH2 0x824 JUMP JUMPDEST JUMPDEST DUP3 CALLDATALOAD SWAP1 POP PUSH8 0xFFFFFFFFFFFFFFFF DUP2 GT ISZERO PUSH2 0x48D JUMPI PUSH2 0x48C PUSH2 0x81F JUMP JUMPDEST JUMPDEST PUSH1 0x20 DUP4 ADD SWAP2 POP DUP4 PUSH1 0x1 DUP3 MUL DUP4 ADD GT ISZERO PUSH2 0x4A9 JUMPI PUSH2 0x4A8 PUSH2 0x829 JUMP JUMPDEST JUMPDEST SWAP3 POP SWAP3 SWAP1 POP JUMP JUMPDEST PUSH1 0x0 DUP2 CALLDATALOAD SWAP1 POP PUSH2 0x4BF DUP2 PUSH2 0x860 JUMP JUMPDEST SWAP3 SWAP2 POP POP JUMP JUMPDEST PUSH1 0x0 PUSH1 0x20 DUP3 DUP5 SUB SLT ISZERO PUSH2 0x4DB JUMPI PUSH2 0x4DA PUSH2 0x833 JUMP JUMPDEST JUMPDEST PUSH1 0x0 PUSH2 0x4E9 DUP5 DUP3 DUP6 ADD PUSH2 0x445 JUMP JUMPDEST SWAP2 POP POP SWAP3 SWAP2 POP POP JUMP JUMPDEST PUSH1 0x0 DUP1 PUSH1 0x40 DUP4 DUP6 SUB SLT ISZERO PUSH2 0x509 JUMPI PUSH2 0x508 PUSH2 0x833 JUMP JUMPDEST JUMPDEST PUSH1 0x0 PUSH2 0x517 DUP6 DUP3 DUP7 ADD PUSH2 0x445 JUMP JUMPDEST SWAP3 POP POP PUSH1 0x20 PUSH2 0x528 DUP6 DUP3 DUP7 ADD PUSH2 0x445 JUMP JUMPDEST SWAP2 POP POP SWAP3 POP SWAP3 SWAP1 POP JUMP JUMPDEST PUSH1 0x0 DUP1 PUSH1 0x0 PUSH1 0x40 DUP5 DUP7 SUB SLT ISZERO PUSH2 0x54B JUMPI PUSH2 0x54A PUSH2 0x833 JUMP JUMPDEST JUMPDEST PUSH1 0x0 PUSH2 0x559 DUP7 DUP3 DUP8 ADD PUSH2 0x445 JUMP JUMPDEST SWAP4 POP POP PUSH1 0x20 DUP5 ADD CALLDATALOAD PUSH8 0xFFFFFFFFFFFFFFFF DUP2 GT ISZERO PUSH2 0x57A JUMPI PUSH2 0x579 PUSH2 0x82E JUMP JUMPDEST JUMPDEST PUSH2 0x586 DUP7 DUP3 DUP8 ADD PUSH2 0x45A JUMP JUMPDEST SWAP3 POP SWAP3 POP POP SWAP3 POP SWAP3 POP SWAP3 JUMP JUMPDEST PUSH1 0x0 DUP1 PUSH1 0x40 DUP4 DUP6 SUB SLT ISZERO PUSH2 0x5A9 JUMPI PUSH2 0x5A8 PUSH2 0x833 JUMP JUMPDEST JUMPDEST PUSH1 0x0 PUSH2 0x5B7 DUP6 DUP3 DUP7 ADD PUSH2 0x445 JUMP JUMPDEST SWAP3 POP POP PUSH1 0x20 PUSH2 0x5C8 DUP6 DUP3 DUP7 ADD PUSH2 0x4B0 JUMP JUMPDEST SWAP2 POP POP SWAP3 POP SWAP3 SWAP1 POP JUMP JUMPDEST PUSH1 0x0 DUP1 PUSH1 0x20 DUP4 DUP6 SUB SLT ISZERO PUSH2 0x5E9 JUMPI PUSH2 0x5E8 PUSH2 0x833 JUMP JUMPDEST JUMPDEST PUSH1 0x0 DUP4 ADD CALLDATALOAD PUSH8 0xFFFFFFFFFFFFFFFF DUP2 GT ISZERO PUSH2 0x607 JUMPI PUSH2 0x606 PUSH2 0x82E JUMP JUMPDEST JUMPDEST PUSH2 0x613 DUP6 DUP3 DUP7 ADD PUSH2 0x45A JUMP JUMPDEST SWAP3 POP SWAP3 POP POP SWAP3 POP SWAP3 SWAP1 POP JUMP JUMPDEST PUSH1 0x0 PUSH1 0x20 DUP3 DUP5 SUB SLT ISZERO PUSH2 0x635 JUMPI PUSH2 0x634 PUSH2 0x833 JUMP JUMPDEST JUMPDEST PUSH1 0x0 PUSH2 0x643 DUP5 DUP3 DUP6 ADD PUSH2 0x4B0 JUMP JUMPDEST SWAP2 POP POP SWAP3 SWAP2 POP POP JUMP JUMPDEST PUSH2 0x655 DUP2 PUSH2 0x768 JUMP JUMPDEST DUP3 MSTORE POP POP JUMP JUMPDEST PUSH1 0x0 PUSH2 0x667 DUP4 DUP6 PUSH2 0x757 JUMP JUMPDEST SWAP4 POP PUSH2 0x674 DUP4 DUP6 DUP5 PUSH2 0x77C JUMP JUMPDEST PUSH2 0x67D DUP4 PUSH2 0x838 JUMP JUMPDEST DUP5 ADD SWAP1 POP SWAP4 SWAP3 POP POP POP JUMP JUMPDEST PUSH1 0x0 PUSH2 0x693 DUP3 PUSH2 0x74C JUMP JUMPDEST PUSH2 0x69D DUP2 DUP6 PUSH2 0x757 JUMP JUMPDEST SWAP4 POP PUSH2 0x6AD DUP2 DUP6 PUSH1 0x20 DUP7 ADD PUSH2 0x78B JUMP JUMPDEST PUSH2 0x6B6 DUP2 PUSH2 0x838 JUMP JUMPDEST DUP5 ADD SWAP2 POP POP SWAP3 SWAP2 POP POP JUMP JUMPDEST PUSH2 0x6CA DUP2 PUSH2 0x772 JUMP JUMPDEST DUP3 MSTORE POP POP JUMP JUMPDEST PUSH1 0x0 PUSH1 0x20 DUP3 ADD SWAP1 POP PUSH2 0x6E5 PUSH1 0x0 DUP4 ADD DUP5 PUSH2 0x64C JUMP JUMPDEST SWAP3 SWAP2 POP POP JUMP JUMPDEST PUSH1 0x0 PUSH1 0x20 DUP3 ADD SWAP1 POP DUP2 DUP2 SUB PUSH1 0x0 DUP4 ADD MSTORE PUSH2 0x706 DUP2 DUP5 DUP7 PUSH2 0x65B JUMP JUMPDEST SWAP1 POP SWAP4 SWAP3 POP POP POP JUMP JUMPDEST PUSH1 0x0 PUSH1 0x20 DUP3 ADD SWAP1 POP DUP2 DUP2 SUB PUSH1 0x0 DUP4 ADD MSTORE PUSH2 0x729 DUP2 DUP5 PUSH2 0x688 JUMP JUMPDEST SWAP1 POP SWAP3 SWAP2 POP POP JUMP JUMPDEST PUSH1 0x0 PUSH1 0x20 DUP3 ADD SWAP1 POP PUSH2 0x746 PUSH1 0x0 DUP4 ADD DUP5 PUSH2 0x6C1 JUMP JUMPDEST SWAP3 SWAP2 POP POP JUMP JUMPDEST PUSH1 0x0 DUP2 MLOAD SWAP1 POP SWAP2 SWAP1 POP JUMP JUMPDEST PUSH1 0x0 DUP3 DUP3 MSTORE PUSH1 0x20 DUP3 ADD SWAP1 POP SWAP3 SWAP2 POP POP JUMP JUMPDEST PUSH1 0x0 DUP2 SWAP1 POP SWAP2 SWAP1 POP JUMP JUMPDEST PUSH1 0x0 DUP2 SWAP1 POP SWAP2 SWAP1 POP JUMP JUMPDEST DUP3 DUP2 DUP4 CALLDATACOPY PUSH1 0x0 DUP4 DUP4 ADD MSTORE POP POP POP JUMP JUMPDEST PUSH1 0x0 JUMPDEST DUP4 DUP2 LT ISZERO PUSH2 0x7A9 JUMPI DUP1 DUP3 ADD MLOAD DUP2 DUP5 ADD MSTORE PUSH1 0x20 DUP2 ADD SWAP1 POP PUSH2 0x78E JUMP JUMPDEST DUP4 DUP2 GT ISZERO PUSH2 0x7B8 JUMPI PUSH1 0x0 DUP5 DUP5 ADD MSTORE JUMPDEST POP POP POP POP JUMP JUMPDEST PUSH1 0x0 PUSH1 0x2 DUP3 DIV SWAP1 POP PUSH1 0x1 DUP3 AND DUP1 PUSH2 0x7D6 JUMPI PUSH1 0x7F DUP3 AND SWAP2 POP JUMPDEST PUSH1 0x20 DUP3 LT DUP2 EQ ISZERO PUSH2 0x7EA JUMPI PUSH2 0x7E9 PUSH2 0x7F0 JUMP JUMPDEST JUMPDEST POP SWAP2 SWAP1 POP JUMP JUMPDEST PUSH32 0x4E487B7100000000000000000000000000000000000000000000000000000000 PUSH1 0x0 MSTORE PUSH1 0x22 PUSH1 0x4 MSTORE PUSH1 0x24 PUSH1 0x0 REVERT JUMPDEST PUSH1 0x0 DUP1 REVERT JUMPDEST PUSH1 0x0 DUP1 REVERT JUMPDEST PUSH1 0x0 DUP1 REVERT JUMPDEST PUSH1 0x0 DUP1 REVERT JUMPDEST PUSH1 0x0 DUP1 REVERT JUMPDEST PUSH1 0x0 PUSH1 0x1F NOT PUSH1 0x1F DUP4 ADD AND SWAP1 POP SWAP2 SWAP1 POP JUMP JUMPDEST PUSH2 0x852 DUP2 PUSH2 0x768 JUMP JUMPDEST DUP2 EQ PUSH2 0x85D JUMPI PUSH1 0x0 DUP1 REVERT JUMPDEST POP JUMP JUMPDEST PUSH2 0x869 DUP2 PUSH2 0x772 JUMP JUMPDEST DUP2 EQ PUSH2 0x874 JUMPI PUSH1 0x0 DUP1 REVERT JUMPDEST POP JUMP INVALID LOG2 PUSH5 0x6970667358 0x22 SLT KECCAK256 PUSH2 0xDCA1 LOG3 0xAA STATICCALL SWAP11 SLOAD 0xF7 0xD1 0xBB DUP12 LOG2 0xCA 0xDD PUSH26 0xDDFA15EA41347B41DD467294DB6401B464736F6C634300080600 CALLER "},"methodIdentifiers":{"getBytes()":"0bcd3b33","getBytes32()":"1f903037","getUint256()":"68895979","requestId()":"006d6cae","requestedBytes(bytes32,bytes)":"46ddd1ff","requestedBytes32(bytes32,bytes32)":"ed53e511","requestedUint256(bytes32,uint256)":"3345b4d0","setBytes(bytes)":"da359dc8","setBytes32(bytes32)":"c2b12a73","setUint256(uint256)":"d2282dc5"}}}}}