{
  "_format": "hh-sol-artifact-1",
  "contractName": "GetterSetter",
  "sourceName": "contracts/GetterSetter.sol",
  "abi": [
    {
      "anonymous": false,
      "inputs": [
        {
          "indexed": false,
          "internalType": "bytes32",
          "name": "b32",
          "type": "bytes32"
        },
        {
          "indexed": false,
          "internalType": "uint256",
          "name": "u256",
          "type": "uint256"
        },
        {
          "indexed": false,
          "internalType": "bytes32",
          "name": "b322",
          "type": "bytes32"
        }
      ],
      "name": "Output",
      "type": "event"
    },
    {
      "anonymous": false,
      "inputs": [
        {
          "indexed": true,
          "internalType": "address",
          "name": "from",
          "type": "address"
        },
        {
          "indexed": false,
          "internalType": "bytes",
          "name": "value",
          "type": "bytes"
        }
      ],
      "name": "SetBytes",
      "type": "event"
    },
    {
      "anonymous": false,
      "inputs": [
        {
          "indexed": true,
          "internalType": "address",
          "name": "from",
          "type": "address"
        },
        {
          "indexed": true,
          "internalType": "bytes32",
          "name": "value",
          "type": "bytes32"
        }
      ],
      "name": "SetBytes32",
      "type": "event"
    },
    {
      "anonymous": false,
      "inputs": [
        {
          "indexed": true,
          "internalType": "address",
          "name": "from",
          "type": "address"
        },
        {
          "indexed": true,
          "internalType": "uint256",
          "name": "value",
          "type": "uint256"
        }
      ],
      "name": "SetUint256",
      "type": "event"
    },
    {
      "inputs": [],
      "name": "getBytes",
      "outputs": [
        {
          "internalType": "bytes",
          "name": "",
          "type": "bytes"
        }
      ],
      "stateMutability": "view",
      "type": "function"
    },
    {
      "inputs": [],
      "name": "getBytes32",
      "outputs": [
        {
          "internalType": "bytes32",
          "name": "",
          "type": "bytes32"
        }
      ],
      "stateMutability": "view",
      "type": "function"
    },
    {
      "inputs": [],
      "name": "getUint256",
      "outputs": [
        {
          "internalType": "uint256",
          "name": "",
          "type": "uint256"
        }
      ],
      "stateMutability": "view",
      "type": "function"
    },
    {
      "inputs": [],
      "name": "requestId",
      "outputs": [
        {
          "internalType": "bytes32",
          "name": "",
          "type": "bytes32"
        }
      ],
      "stateMutability": "view",
      "type": "function"
    },
    {
      "inputs": [
        {
          "internalType": "bytes32",
          "name": "_requestId",
          "type": "bytes32"
        },
        {
          "internalType": "bytes",
          "name": "_value",
          "type": "bytes"
        }
      ],
      "name": "requestedBytes",
      "outputs": [],
      "stateMutability": "nonpayable",
      "type": "function"
    },
    {
      "inputs": [
        {
          "internalType": "bytes32",
          "name": "_requestId",
          "type": "bytes32"
        },
        {
          "internalType": "bytes32",
          "name": "_value",
          "type": "bytes32"
        }
      ],
      "name": "requestedBytes32",
      "outputs": [],
      "stateMutability": "nonpayable",
      "type": "function"
    },
    {
      "inputs": [
        {
          "internalType": "bytes32",
          "name": "_requestId",
          "type": "bytes32"
        },
        {
          "internalType": "uint256",
          "name": "_value",
          "type": "uint256"
        }
      ],
      "name": "requestedUint256",
      "outputs": [],
      "stateMutability": "nonpayable",
      "type": "function"
    },
    {
      "inputs": [
        {
          "internalType": "bytes",
          "name": "_value",
          "type": "bytes"
        }
      ],
      "name": "setBytes",
      "outputs": [],
      "stateMutability": "nonpayable",
      "type": "function"
    },
    {
      "inputs": [
        {
          "internalType": "bytes32",
          "name": "_value",
          "type": "bytes32"
        }
      ],
      "name": "setBytes32",
      "outputs": [],
      "stateMutability": "nonpayable",
      "type": "function"
    },
    {
      "inputs": [
        {
          "internalType": "uint256",
          "name": "_value",
          "type": "uint256"
        }
      ],
      "name": "setUint256",
      "outputs": [],
      "stateMutability": "nonpayable",
      "type": "function"
    }
  ],
  "bytecode": "0x608060405234801561001057600080fd5b506108ad806100206000396000f3fe608060405234801561001057600080fd5b506004361061009d5760003560e01c806368895979116100665780636889597914610134578063c2b12a7314610152578063d2282dc51461016e578063da359dc81461018a578063ed53e511146101a65761009d565b80626d6cae146100a25780630bcd3b33146100c05780631f903037146100de5780633345b4d0146100fc57806346ddd1ff14610118575b600080fd5b6100aa6101c2565b6040516100b791906106d0565b60405180910390f35b6100c86101c8565b6040516100d5919061070f565b60405180910390f35b6100e6610256565b6040516100f391906106d0565b60405180910390f35b61011660048036038101906101119190610592565b61025c565b005b610132600480360381019061012d9190610532565b610270565b005b61013c610286565b6040516101499190610731565b60405180910390f35b61016c600480360381019061016791906104c5565b61028c565b005b6101886004803603810190610183919061061f565b6102da565b005b6101a4600480360381019061019f91906105d2565b610328565b005b6101c060048036038101906101bb91906104f2565b61038e565b005b60025481565b600380546101d5906107be565b80601f0160208091040260200160405190810160405280929190818152602001828054610201906107be565b801561024e5780601f106102235761010080835404028352916020019161024e565b820191906000526020600020905b81548152906001019060200180831161023157829003601f168201915b505050505081565b60005481565b8160028190555061026c816102da565b5050565b826002819055506102818282610328565b505050565b60015481565b80600081905550803373ffffffffffffffffffffffffffffffffffffffff167fdc73ee99832252105ed74a404690c2f10ad1b294cbbeb0ff5cded48ef2aa437d60405160405180910390a350565b80600181905550803373ffffffffffffffffffffffffffffffffffffffff167fd943f063acdb1c6f206cf6a3f6d1ba39687bcc07feb7f44019bdbd4773c9c28d60405160405180910390a350565b8181600391906103399291906103a2565b503373ffffffffffffffffffffffffffffffffffffffff167ff22a519d38e59bc517532f666f8da532fdd5356e68d617191e82a8fdcc8abdcf83836040516103829291906106eb565b60405180910390a25050565b8160028190555061039e8161028c565b5050565b8280546103ae906107be565b90600052602060002090601f0160209004810192826103d05760008555610417565b82601f106103e957803560ff1916838001178555610417565b82800160010185558215610417579182015b828111156104165782358255916020019190600101906103fb565b5b5090506104249190610428565b5090565b5b80821115610441576000816000905550600101610429565b5090565b60008135905061045481610849565b92915050565b60008083601f8401126104705761046f610824565b5b8235905067ffffffffffffffff81111561048d5761048c61081f565b5b6020830191508360018202830111156104a9576104a8610829565b5b9250929050565b6000813590506104bf81610860565b92915050565b6000602082840312156104db576104da610833565b5b60006104e984828501610445565b91505092915050565b6000806040838503121561050957610508610833565b5b600061051785828601610445565b925050602061052885828601610445565b9150509250929050565b60008060006040848603121561054b5761054a610833565b5b600061055986828701610445565b935050602084013567ffffffffffffffff81111561057a5761057961082e565b5b6105868682870161045a565b92509250509250925092565b600080604083850312156105a9576105a8610833565b5b60006105b785828601610445565b92505060206105c8858286016104b0565b9150509250929050565b600080602083850312156105e9576105e8610833565b5b600083013567ffffffffffffffff8111156106075761060661082e565b5b6106138582860161045a565b92509250509250929050565b60006020828403121561063557610634610833565b5b6000610643848285016104b0565b91505092915050565b61065581610768565b82525050565b60006106678385610757565b935061067483858461077c565b61067d83610838565b840190509392505050565b60006106938261074c565b61069d8185610757565b93506106ad81856020860161078b565b6106b681610838565b840191505092915050565b6106ca81610772565b82525050565b60006020820190506106e5600083018461064c565b92915050565b6000602082019050818103600083015261070681848661065b565b90509392505050565b600060208201905081810360008301526107298184610688565b905092915050565b600060208201905061074660008301846106c1565b92915050565b600081519050919050565b600082825260208201905092915050565b6000819050919050565b6000819050919050565b82818337600083830152505050565b60005b838110156107a957808201518184015260208101905061078e565b838111156107b8576000848401525b50505050565b600060028204905060018216806107d657607f821691505b602082108114156107ea576107e96107f0565b5b50919050565b7f4e487b7100000000000000000000000000000000000000000000000000000000600052602260045260246000fd5b600080fd5b600080fd5b600080fd5b600080fd5b600080fd5b6000601f19601f8301169050919050565b61085281610768565b811461085d57600080fd5b50565b61086981610772565b811461087457600080fd5b5056fea264697066735822122061dca1a3aafa9a54f7d1bb8ba2cadd79ddfa15ea41347b41dd467294db6401b464736f6c63430008060033",
  "linkReferences": {},
  "deployedLinkReferences": {}
}